{
    "_format": "hh-sol-artifact-1",
    "contractName": "Cola",
    "sourceName": "contracts/Cola.sol",
    "abi": [
        {
            "inputs": [],
            "stateMutability": "nonpayable",
            "type": "constructor"
        },
        {
            "inputs": [
                {
                    "internalType": "string",
                    "name": "name",
                    "type": "string"
                },
                {
                    "internalType": "string",
                    "name": "message",
                    "type": "string"
                }
            ],
            "name": "buyCola",
            "outputs": [],
            "stateMutability": "payable",
            "type": "function"
        },
        {
            "inputs": [],
            "name": "getMemos",
            "outputs": [
                {
                    "components": [
                        {
                            "internalType": "string",
                            "name": "name",
                            "type": "string"
                        },
                        {
                            "internalType": "string",
                            "name": "message",
                            "type": "string"
                        },
                        {
                            "internalType": "uint256",
                            "name": "timestamp",
                            "type": "uint256"
                        },
                        {
                            "internalType": "address",
                            "name": "from",
                            "type": "address"
                        }
                    ],
                    "internalType": "struct Cola.Memo[]",
                    "name": "",
                    "type": "tuple[]"
                }
            ],
            "stateMutability": "view",
            "type": "function"
        }
    ],
    "bytecode": "0x608060405234801561001057600080fd5b5033600160006101000a81548173ffffffffffffffffffffffffffffffffffffffff021916908373ffffffffffffffffffffffffffffffffffffffff160217905550610b99806100616000396000f3fe6080604052600436106100295760003560e01c8063865c51721461002e578063b14afb1c14610059575b600080fd5b34801561003a57600080fd5b50610043610075565b60405161005091906105ff565b60405180910390f35b610073600480360381019061006e919061076a565b610258565b005b60606000805480602002602001604051908101604052809291908181526020016000905b8282101561024f57838290600052602060002090600402016040518060800160405290816000820180546100cc90610811565b80601f01602080910402602001604051908101604052809291908181526020018280546100f890610811565b80156101455780601f1061011a57610100808354040283529160200191610145565b820191906000526020600020905b81548152906001019060200180831161012857829003601f168201915b5050505050815260200160018201805461015e90610811565b80601f016020809104026020016040519081016040528092919081815260200182805461018a90610811565b80156101d75780601f106101ac576101008083540402835291602001916101d7565b820191906000526020600020905b8154815290600101906020018083116101ba57829003601f168201915b50505050508152602001600282015481526020016003820160009054906101000a900473ffffffffffffffffffffffffffffffffffffffff1673ffffffffffffffffffffffffffffffffffffffff1673ffffffffffffffffffffffffffffffffffffffff168152505081526020019060010190610099565b50505050905090565b6000341161029b576040517f08c379a0000000000000000000000000000000000000000000000000000000008152600401610292906108c5565b60405180910390fd5b600160009054906101000a900473ffffffffffffffffffffffffffffffffffffffff1673ffffffffffffffffffffffffffffffffffffffff166108fc349081150290604051600060405180830381858888f19350505050158015610303573d6000803e3d6000fd5b50600060405180608001604052808481526020018381526020014281526020013373ffffffffffffffffffffffffffffffffffffffff168152509080600181540180825580915050600190039060005260206000209060040201600090919091909150600082015181600001908161037b9190610a91565b5060208201518160010190816103919190610a91565b506040820151816002015560608201518160030160006101000a81548173ffffffffffffffffffffffffffffffffffffffff021916908373ffffffffffffffffffffffffffffffffffffffff16021790555050505050565b600081519050919050565b600082825260208201905092915050565b6000819050602082019050919050565b600081519050919050565b600082825260208201905092915050565b60005b8381101561044f578082015181840152602081019050610434565b60008484015250505050565b6000601f19601f8301169050919050565b600061047782610415565b6104818185610420565b9350610491818560208601610431565b61049a8161045b565b840191505092915050565b6000819050919050565b6104b8816104a5565b82525050565b600073ffffffffffffffffffffffffffffffffffffffff82169050919050565b60006104e9826104be565b9050919050565b6104f9816104de565b82525050565b6000608083016000830151848203600086015261051c828261046c565b91505060208301518482036020860152610536828261046c565b915050604083015161054b60408601826104af565b50606083015161055e60608601826104f0565b508091505092915050565b600061057583836104ff565b905092915050565b6000602082019050919050565b6000610595826103e9565b61059f81856103f4565b9350836020820285016105b185610405565b8060005b858110156105ed57848403895281516105ce8582610569565b94506105d98361057d565b925060208a019950506001810190506105b5565b50829750879550505050505092915050565b60006020820190508181036000830152610619818461058a565b905092915050565b6000604051905090565b600080fd5b600080fd5b600080fd5b600080fd5b7f4e487b7100000000000000000000000000000000000000000000000000000000600052604160045260246000fd5b6106778261045b565b810181811067ffffffffffffffff821117156106965761069561063f565b5b80604052505050565b60006106a9610621565b90506106b5828261066e565b919050565b600067ffffffffffffffff8211156106d5576106d461063f565b5b6106de8261045b565b9050602081019050919050565b82818337600083830152505050565b600061070d610708846106ba565b61069f565b9050828152602081018484840111156107295761072861063a565b5b6107348482856106eb565b509392505050565b600082601f83011261075157610750610635565b5b81356107618482602086016106fa565b91505092915050565b600080604083850312156107815761078061062b565b5b600083013567ffffffffffffffff81111561079f5761079e610630565b5b6107ab8582860161073c565b925050602083013567ffffffffffffffff8111156107cc576107cb610630565b5b6107d88582860161073c565b9150509250929050565b7f4e487b7100000000000000000000000000000000000000000000000000000000600052602260045260246000fd5b6000600282049050600182168061082957607f821691505b60208210810361083c5761083b6107e2565b5b50919050565b600082825260208201905092915050565b7f76616c75652073686f756c642062652067726561746572207468616e2030206560008201527f7468657200000000000000000000000000000000000000000000000000000000602082015250565b60006108af602483610842565b91506108ba82610853565b604082019050919050565b600060208201905081810360008301526108de816108a2565b9050919050565b60008190508160005260206000209050919050565b60006020601f8301049050919050565b600082821b905092915050565b6000600883026109477fffffffffffffffffffffffffffffffffffffffffffffffffffffffffffffffff8261090a565b610951868361090a565b95508019841693508086168417925050509392505050565b6000819050919050565b600061098e610989610984846104a5565b610969565b6104a5565b9050919050565b6000819050919050565b6109a883610973565b6109bc6109b482610995565b848454610917565b825550505050565b600090565b6109d16109c4565b6109dc81848461099f565b505050565b5b81811015610a00576109f56000826109c9565b6001810190506109e2565b5050565b601f821115610a4557610a16816108e5565b610a1f846108fa565b81016020851015610a2e578190505b610a42610a3a856108fa565b8301826109e1565b50505b505050565b600082821c905092915050565b6000610a6860001984600802610a4a565b1980831691505092915050565b6000610a818383610a57565b9150826002028217905092915050565b610a9a82610415565b67ffffffffffffffff811115610ab357610ab261063f565b5b610abd8254610811565b610ac8828285610a04565b600060209050601f831160018114610afb5760008415610ae9578287015190505b610af38582610a75565b865550610b5b565b601f198416610b09866108e5565b60005b82811015610b3157848901518255600182019150602085019450602081019050610b0c565b86831015610b4e5784890151610b4a601f891682610a57565b8355505b6001600288020188555050505b50505050505056fea26469706673582212209e5be8481507af1df13376d9deb3989fbae98e2e38f73b0deb5c6f05e80c25f464736f6c63430008110033",
    "linkReferences": {},
    "deployedLinkReferences": {}
}